{
  "_format": "hh-sol-artifact-1",
  "contractName": "Create",
  "sourceName": "contracts/VotingContract.sol",
  "abi": [
    {
      "inputs": [],
      "stateMutability": "nonpayable",
      "type": "constructor"
    },
    {
      "anonymous": false,
      "inputs": [
        {
          "indexed": true,
          "internalType": "uint256",
          "name": "candidateId",
          "type": "uint256"
        },
        {
          "indexed": false,
          "internalType": "string",
          "name": "age",
          "type": "string"
        },
        {
          "indexed": false,
          "internalType": "string",
          "name": "name",
          "type": "string"
        },
        {
          "indexed": false,
          "internalType": "string",
          "name": "image",
          "type": "string"
        },
        {
          "indexed": false,
          "internalType": "uint256",
          "name": "voteCount",
          "type": "uint256"
        },
        {
          "indexed": false,
          "internalType": "address",
          "name": "_address",
          "type": "address"
        },
        {
          "indexed": false,
          "internalType": "string",
          "name": "ipfs",
          "type": "string"
        }
      ],
      "name": "CandidateCreated",
      "type": "event"
    },
    {
      "anonymous": false,
      "inputs": [
        {
          "indexed": true,
          "internalType": "uint256",
          "name": "voter_voterId",
          "type": "uint256"
        },
        {
          "indexed": false,
          "internalType": "string",
          "name": "voter_name",
          "type": "string"
        },
        {
          "indexed": false,
          "internalType": "string",
          "name": "voter_image",
          "type": "string"
        },
        {
          "indexed": false,
          "internalType": "address",
          "name": "voter_address",
          "type": "address"
        },
        {
          "indexed": false,
          "internalType": "uint256",
          "name": "voter_allowed",
          "type": "uint256"
        },
        {
          "indexed": false,
          "internalType": "bool",
          "name": "voter_voted",
          "type": "bool"
        },
        {
          "indexed": false,
          "internalType": "uint256",
          "name": "voter_vote",
          "type": "uint256"
        },
        {
          "indexed": false,
          "internalType": "string",
          "name": "voter_ipfs",
          "type": "string"
        }
      ],
      "name": "VoterCreated",
      "type": "event"
    },
    {
      "inputs": [],
      "name": "_candidateId",
      "outputs": [
        {
          "internalType": "uint256",
          "name": "_value",
          "type": "uint256"
        }
      ],
      "stateMutability": "view",
      "type": "function"
    },
    {
      "inputs": [],
      "name": "_voterId",
      "outputs": [
        {
          "internalType": "uint256",
          "name": "_value",
          "type": "uint256"
        }
      ],
      "stateMutability": "view",
      "type": "function"
    },
    {
      "inputs": [
        {
          "internalType": "uint256",
          "name": "",
          "type": "uint256"
        }
      ],
      "name": "candidateAddress",
      "outputs": [
        {
          "internalType": "address",
          "name": "",
          "type": "address"
        }
      ],
      "stateMutability": "view",
      "type": "function"
    },
    {
      "inputs": [
        {
          "internalType": "address",
          "name": "",
          "type": "address"
        }
      ],
      "name": "candidates",
      "outputs": [
        {
          "internalType": "uint256",
          "name": "candidateId",
          "type": "uint256"
        },
        {
          "internalType": "string",
          "name": "age",
          "type": "string"
        },
        {
          "internalType": "string",
          "name": "name",
          "type": "string"
        },
        {
          "internalType": "string",
          "name": "image",
          "type": "string"
        },
        {
          "internalType": "uint256",
          "name": "voteCount",
          "type": "uint256"
        },
        {
          "internalType": "address",
          "name": "_address",
          "type": "address"
        },
        {
          "internalType": "string",
          "name": "ipfs",
          "type": "string"
        }
      ],
      "stateMutability": "view",
      "type": "function"
    },
    {
      "inputs": [],
      "name": "getCandidate",
      "outputs": [
        {
          "internalType": "address[]",
          "name": "",
          "type": "address[]"
        }
      ],
      "stateMutability": "view",
      "type": "function"
    },
    {
      "inputs": [
        {
          "internalType": "address",
          "name": "_address",
          "type": "address"
        }
      ],
      "name": "getCandidateData",
      "outputs": [
        {
          "internalType": "string",
          "name": "",
          "type": "string"
        },
        {
          "internalType": "string",
          "name": "",
          "type": "string"
        },
        {
          "internalType": "uint256",
          "name": "",
          "type": "uint256"
        },
        {
          "internalType": "string",
          "name": "",
          "type": "string"
        },
        {
          "internalType": "uint256",
          "name": "",
          "type": "uint256"
        },
        {
          "internalType": "string",
          "name": "",
          "type": "string"
        },
        {
          "internalType": "address",
          "name": "",
          "type": "address"
        }
      ],
      "stateMutability": "view",
      "type": "function"
    },
    {
      "inputs": [],
      "name": "getCandidateLength",
      "outputs": [
        {
          "internalType": "uint256",
          "name": "",
          "type": "uint256"
        }
      ],
      "stateMutability": "view",
      "type": "function"
    },
    {
      "inputs": [],
      "name": "getVotedVoterList",
      "outputs": [
        {
          "internalType": "address[]",
          "name": "",
          "type": "address[]"
        }
      ],
      "stateMutability": "view",
      "type": "function"
    },
    {
      "inputs": [
        {
          "internalType": "address",
          "name": "_address",
          "type": "address"
        }
      ],
      "name": "getVoterData",
      "outputs": [
        {
          "internalType": "uint256",
          "name": "",
          "type": "uint256"
        },
        {
          "internalType": "string",
          "name": "",
          "type": "string"
        },
        {
          "internalType": "string",
          "name": "",
          "type": "string"
        },
        {
          "internalType": "address",
          "name": "",
          "type": "address"
        },
        {
          "internalType": "string",
          "name": "",
          "type": "string"
        },
        {
          "internalType": "uint256",
          "name": "",
          "type": "uint256"
        },
        {
          "internalType": "bool",
          "name": "",
          "type": "bool"
        }
      ],
      "stateMutability": "view",
      "type": "function"
    },
    {
      "inputs": [],
      "name": "getVoterLength",
      "outputs": [
        {
          "internalType": "uint256",
          "name": "",
          "type": "uint256"
        }
      ],
      "stateMutability": "view",
      "type": "function"
    },
    {
      "inputs": [],
      "name": "getVoterList",
      "outputs": [
        {
          "internalType": "address[]",
          "name": "",
          "type": "address[]"
        }
      ],
      "stateMutability": "view",
      "type": "function"
    },
    {
      "inputs": [
        {
          "internalType": "address",
          "name": "_address",
          "type": "address"
        },
        {
          "internalType": "string",
          "name": "_age",
          "type": "string"
        },
        {
          "internalType": "string",
          "name": "_name",
          "type": "string"
        },
        {
          "internalType": "string",
          "name": "_image",
          "type": "string"
        },
        {
          "internalType": "string",
          "name": "_ipfs",
          "type": "string"
        }
      ],
      "name": "setCandidate",
      "outputs": [],
      "stateMutability": "nonpayable",
      "type": "function"
    },
    {
      "inputs": [
        {
          "internalType": "address",
          "name": "_candidateAddress",
          "type": "address"
        },
        {
          "internalType": "uint256",
          "name": "_candidateVoteId",
          "type": "uint256"
        }
      ],
      "name": "vote",
      "outputs": [],
      "stateMutability": "nonpayable",
      "type": "function"
    },
    {
      "inputs": [
        {
          "internalType": "uint256",
          "name": "",
          "type": "uint256"
        }
      ],
      "name": "votedVoters",
      "outputs": [
        {
          "internalType": "address",
          "name": "",
          "type": "address"
        }
      ],
      "stateMutability": "view",
      "type": "function"
    },
    {
      "inputs": [
        {
          "internalType": "address",
          "name": "_address",
          "type": "address"
        },
        {
          "internalType": "string",
          "name": "_name",
          "type": "string"
        },
        {
          "internalType": "string",
          "name": "_image",
          "type": "string"
        },
        {
          "internalType": "string",
          "name": "_ipfs",
          "type": "string"
        }
      ],
      "name": "voterRight",
      "outputs": [],
      "stateMutability": "nonpayable",
      "type": "function"
    },
    {
      "inputs": [
        {
          "internalType": "address",
          "name": "",
          "type": "address"
        }
      ],
      "name": "voters",
      "outputs": [
        {
          "internalType": "uint256",
          "name": "voter_voterId",
          "type": "uint256"
        },
        {
          "internalType": "string",
          "name": "voter_name",
          "type": "string"
        },
        {
          "internalType": "string",
          "name": "voter_image",
          "type": "string"
        },
        {
          "internalType": "address",
          "name": "voter_address",
          "type": "address"
        },
        {
          "internalType": "uint256",
          "name": "voter_allowed",
          "type": "uint256"
        },
        {
          "internalType": "bool",
          "name": "voter_voted",
          "type": "bool"
        },
        {
          "internalType": "uint256",
          "name": "voter_vote",
          "type": "uint256"
        },
        {
          "internalType": "string",
          "name": "voter_ipfs",
          "type": "string"
        }
      ],
      "stateMutability": "view",
      "type": "function"
    },
    {
      "inputs": [
        {
          "internalType": "uint256",
          "name": "",
          "type": "uint256"
        }
      ],
      "name": "votersAddress",
      "outputs": [
        {
          "internalType": "address",
          "name": "",
          "type": "address"
        }
      ],
      "stateMutability": "view",
      "type": "function"
    },
    {
      "inputs": [],
      "name": "votingOrganizer",
      "outputs": [
        {
          "internalType": "address",
          "name": "",
          "type": "address"
        }
      ],
      "stateMutability": "view",
      "type": "function"
    }
  ],
  "bytecode": "0x6080604052348015600e575f5ffd5b503360025f6101000a81548173ffffffffffffffffffffffffffffffffffffffff021916908373ffffffffffffffffffffffffffffffffffffffff1602179055506127278061005c5f395ff3fe608060405234801561000f575f5ffd5b5060043610610114575f3560e01c80638ab66a90116100a0578063a73889671161006f578063a738896714610331578063b28d92ae1461034f578063b9be31521461036d578063c91ec7121461038b578063f7522a83146103a757610114565b80638ab66a90146102705780638e945685146102a65780638fb4cd80146102c4578063a3ec138d146102fa57610114565b806343242daa116100e757806343242daa146101b85780635cc48aa7146101e85780635f74bbde1461020657806370218b85146102225780637831ffb31461024057610114565b80630361419e1461011857806305ad45a4146101345780632a466ac7146101525780633a88251a14610188575b5f5ffd5b610132600480360381019061012d9190611ad6565b6103c5565b005b61013c610630565b6040516101499190611ba6565b60405180910390f35b61016c60048036038101906101679190611bbf565b61063c565b60405161017f9796959493929190611c59565b60405180910390f35b6101a2600480360381019061019d9190611d0c565b610a68565b6040516101af9190611d37565b60405180910390f35b6101d260048036038101906101cd9190611d0c565b610aa3565b6040516101df9190611d37565b60405180910390f35b6101f0610ade565b6040516101fd9190611d37565b60405180910390f35b610220600480360381019061021b9190611d50565b610b03565b005b61022a610cbe565b6040516102379190611e45565b60405180910390f35b61025a60048036038101906102559190611d0c565b610d49565b6040516102679190611d37565b60405180910390f35b61028a60048036038101906102859190611bbf565b610d84565b60405161029d9796959493929190611e65565b60405180910390f35b6102ae610ff9565b6040516102bb9190611e45565b60405180910390f35b6102de60048036038101906102d99190611bbf565b611084565b6040516102f19796959493929190611f08565b60405180910390f35b610314600480360381019061030f9190611bbf565b611432565b604051610328989796959493929190611f8a565b60405180910390f35b610339611633565b6040516103469190611ba6565b60405180910390f35b61035761163e565b6040516103649190611e45565b60405180910390f35b6103756116c9565b6040516103829190611ba6565b60405180910390f35b6103a560048036038101906103a0919061201b565b6116d3565b005b6103af611903565b6040516103bc9190611ba6565b60405180910390f35b3373ffffffffffffffffffffffffffffffffffffffff1660025f9054906101000a900473ffffffffffffffffffffffffffffffffffffffff1673ffffffffffffffffffffffffffffffffffffffff1614610454576040517f08c379a000000000000000000000000000000000000000000000000000000000815260040161044b9061214c565b60405180910390fd5b61045d5f61190f565b5f6104675f611923565b90505f60075f8773ffffffffffffffffffffffffffffffffffffffff1673ffffffffffffffffffffffffffffffffffffffff1681526020019081526020015f2090505f8160040154146104b8575f5ffd5b60018160040181905550848160010190816104d39190612367565b50838160020190816104e59190612367565b5085816003015f6101000a81548173ffffffffffffffffffffffffffffffffffffffff021916908373ffffffffffffffffffffffffffffffffffffffff16021790555081815f01819055506103e881600601819055505f816005015f6101000a81548160ff021916908315150217905550828160070190816105679190612367565b50600686908060018154018082558091505060019003905f5260205f20015f9091909190916101000a81548173ffffffffffffffffffffffffffffffffffffffff021916908373ffffffffffffffffffffffffffffffffffffffff16021790555080600401547ff5f39971dd62d9929e3a9feaa6bb77fe7c7da0001babff8a65a7e51ad0201c198686898560040154866005015f9054906101000a900460ff1687600601548a6040516106209796959493929190612436565b60405180910390a2505050505050565b5f600680549050905090565b6060805f60605f60605f60045f8973ffffffffffffffffffffffffffffffffffffffff1673ffffffffffffffffffffffffffffffffffffffff1681526020019081526020015f2060010160045f8a73ffffffffffffffffffffffffffffffffffffffff1673ffffffffffffffffffffffffffffffffffffffff1681526020019081526020015f2060020160045f8b73ffffffffffffffffffffffffffffffffffffffff1673ffffffffffffffffffffffffffffffffffffffff1681526020019081526020015f205f015460045f8c73ffffffffffffffffffffffffffffffffffffffff1673ffffffffffffffffffffffffffffffffffffffff1681526020019081526020015f2060030160045f8d73ffffffffffffffffffffffffffffffffffffffff1673ffffffffffffffffffffffffffffffffffffffff1681526020019081526020015f206004015460045f8e73ffffffffffffffffffffffffffffffffffffffff1673ffffffffffffffffffffffffffffffffffffffff1681526020019081526020015f2060060160045f8f73ffffffffffffffffffffffffffffffffffffffff1673ffffffffffffffffffffffffffffffffffffffff1681526020019081526020015f206005015f9054906101000a900473ffffffffffffffffffffffffffffffffffffffff1686805461083390612197565b80601f016020809104026020016040519081016040528092919081815260200182805461085f90612197565b80156108aa5780601f10610881576101008083540402835291602001916108aa565b820191905f5260205f20905b81548152906001019060200180831161088d57829003601f168201915b505050505096508580546108bd90612197565b80601f01602080910402602001604051908101604052809291908181526020018280546108e990612197565b80156109345780601f1061090b57610100808354040283529160200191610934565b820191905f5260205f20905b81548152906001019060200180831161091757829003601f168201915b5050505050955083805461094790612197565b80601f016020809104026020016040519081016040528092919081815260200182805461097390612197565b80156109be5780601f10610995576101008083540402835291602001916109be565b820191905f5260205f20905b8154815290600101906020018083116109a157829003601f168201915b505050505093508180546109d190612197565b80601f01602080910402602001604051908101604052809291908181526020018280546109fd90612197565b8015610a485780601f10610a1f57610100808354040283529160200191610a48565b820191905f5260205f20905b815481529060010190602001808311610a2b57829003601f168201915b505050505091509650965096509650965096509650919395979092949650565b60038181548110610a77575f80fd5b905f5260205f20015f915054906101000a900473ffffffffffffffffffffffffffffffffffffffff1681565b60068181548110610ab2575f80fd5b905f5260205f20015f915054906101000a900473ffffffffffffffffffffffffffffffffffffffff1681565b60025f9054906101000a900473ffffffffffffffffffffffffffffffffffffffff1681565b5f60075f3373ffffffffffffffffffffffffffffffffffffffff1673ffffffffffffffffffffffffffffffffffffffff1681526020019081526020015f209050806005015f9054906101000a900460ff1615610b94576040517f08c379a0000000000000000000000000000000000000000000000000000000008152600401610b8b90612502565b60405180910390fd5b5f816004015403610bda576040517f08c379a0000000000000000000000000000000000000000000000000000000008152600401610bd19061256a565b60405180910390fd5b6001816005015f6101000a81548160ff021916908315150217905550818160060181905550600533908060018154018082558091505060019003905f5260205f20015f9091909190916101000a81548173ffffffffffffffffffffffffffffffffffffffff021916908373ffffffffffffffffffffffffffffffffffffffff160217905550806004015460045f8573ffffffffffffffffffffffffffffffffffffffff1673ffffffffffffffffffffffffffffffffffffffff1681526020019081526020015f206004015f828254610cb291906125b5565b92505081905550505050565b60606003805480602002602001604051908101604052809291908181526020018280548015610d3f57602002820191905f5260205f20905b815f9054906101000a900473ffffffffffffffffffffffffffffffffffffffff1673ffffffffffffffffffffffffffffffffffffffff1681526020019060010190808311610cf6575b5050505050905090565b60058181548110610d58575f80fd5b905f5260205f20015f915054906101000a900473ffffffffffffffffffffffffffffffffffffffff1681565b6004602052805f5260405f205f91509050805f015490806001018054610da990612197565b80601f0160208091040260200160405190810160405280929190818152602001828054610dd590612197565b8015610e205780601f10610df757610100808354040283529160200191610e20565b820191905f5260205f20905b815481529060010190602001808311610e0357829003601f168201915b505050505090806002018054610e3590612197565b80601f0160208091040260200160405190810160405280929190818152602001828054610e6190612197565b8015610eac5780601f10610e8357610100808354040283529160200191610eac565b820191905f5260205f20905b815481529060010190602001808311610e8f57829003601f168201915b505050505090806003018054610ec190612197565b80601f0160208091040260200160405190810160405280929190818152602001828054610eed90612197565b8015610f385780601f10610f0f57610100808354040283529160200191610f38565b820191905f5260205f20905b815481529060010190602001808311610f1b57829003601f168201915b505050505090806004015490806005015f9054906101000a900473ffffffffffffffffffffffffffffffffffffffff1690806006018054610f7890612197565b80601f0160208091040260200160405190810160405280929190818152602001828054610fa490612197565b8015610fef5780601f10610fc657610100808354040283529160200191610fef565b820191905f5260205f20905b815481529060010190602001808311610fd257829003601f168201915b5050505050905087565b6060600580548060200260200160405190810160405280929190818152602001828054801561107a57602002820191905f5260205f20905b815f9054906101000a900473ffffffffffffffffffffffffffffffffffffffff1673ffffffffffffffffffffffffffffffffffffffff1681526020019060010190808311611031575b5050505050905090565b5f6060805f60605f5f60075f8973ffffffffffffffffffffffffffffffffffffffff1673ffffffffffffffffffffffffffffffffffffffff1681526020019081526020015f205f015460075f8a73ffffffffffffffffffffffffffffffffffffffff1673ffffffffffffffffffffffffffffffffffffffff1681526020019081526020015f2060010160075f8b73ffffffffffffffffffffffffffffffffffffffff1673ffffffffffffffffffffffffffffffffffffffff1681526020019081526020015f2060020160075f8c73ffffffffffffffffffffffffffffffffffffffff1673ffffffffffffffffffffffffffffffffffffffff1681526020019081526020015f206003015f9054906101000a900473ffffffffffffffffffffffffffffffffffffffff1660075f8d73ffffffffffffffffffffffffffffffffffffffff1673ffffffffffffffffffffffffffffffffffffffff1681526020019081526020015f2060070160075f8e73ffffffffffffffffffffffffffffffffffffffff1673ffffffffffffffffffffffffffffffffffffffff1681526020019081526020015f206004015460075f8f73ffffffffffffffffffffffffffffffffffffffff1673ffffffffffffffffffffffffffffffffffffffff1681526020019081526020015f206005015f9054906101000a900460ff1685805461128790612197565b80601f01602080910402602001604051908101604052809291908181526020018280546112b390612197565b80156112fe5780601f106112d5576101008083540402835291602001916112fe565b820191905f5260205f20905b8154815290600101906020018083116112e157829003601f168201915b5050505050955084805461131190612197565b80601f016020809104026020016040519081016040528092919081815260200182805461133d90612197565b80156113885780601f1061135f57610100808354040283529160200191611388565b820191905f5260205f20905b81548152906001019060200180831161136b57829003601f168201915b5050505050945082805461139b90612197565b80601f01602080910402602001604051908101604052809291908181526020018280546113c790612197565b80156114125780601f106113e957610100808354040283529160200191611412565b820191905f5260205f20905b8154815290600101906020018083116113f557829003601f168201915b505050505092509650965096509650965096509650919395979092949650565b6007602052805f5260405f205f91509050805f01549080600101805461145790612197565b80601f016020809104026020016040519081016040528092919081815260200182805461148390612197565b80156114ce5780601f106114a5576101008083540402835291602001916114ce565b820191905f5260205f20905b8154815290600101906020018083116114b157829003601f168201915b5050505050908060020180546114e390612197565b80601f016020809104026020016040519081016040528092919081815260200182805461150f90612197565b801561155a5780601f106115315761010080835404028352916020019161155a565b820191905f5260205f20905b81548152906001019060200180831161153d57829003601f168201915b505050505090806003015f9054906101000a900473ffffffffffffffffffffffffffffffffffffffff1690806004015490806005015f9054906101000a900460ff16908060060154908060070180546115b290612197565b80601f01602080910402602001604051908101604052809291908181526020018280546115de90612197565b80156116295780601f1061160057610100808354040283529160200191611629565b820191905f5260205f20905b81548152906001019060200180831161160c57829003601f168201915b5050505050905088565b6001805f0154905081565b606060068054806020026020016040519081016040528092919081815260200182805480156116bf57602002820191905f5260205f20905b815f9054906101000a900473ffffffffffffffffffffffffffffffffffffffff1673ffffffffffffffffffffffffffffffffffffffff1681526020019060010190808311611676575b5050505050905090565b5f805f0154905081565b3373ffffffffffffffffffffffffffffffffffffffff1660025f9054906101000a900473ffffffffffffffffffffffffffffffffffffffff1673ffffffffffffffffffffffffffffffffffffffff1614611762576040517f08c379a000000000000000000000000000000000000000000000000000000000815260040161175990612658565b60405180910390fd5b61176c600161190f565b5f6117776001611923565b90505f60045f8873ffffffffffffffffffffffffffffffffffffffff1673ffffffffffffffffffffffffffffffffffffffff1681526020019081526020015f209050858160010190816117ca9190612367565b50848160020190816117dc9190612367565b5081815f0181905550838160030190816117f69190612367565b505f816004018190555086816005015f6101000a81548173ffffffffffffffffffffffffffffffffffffffff021916908373ffffffffffffffffffffffffffffffffffffffff160217905550828160060190816118539190612367565b50600387908060018154018082558091505060019003905f5260205f20015f9091909190916101000a81548173ffffffffffffffffffffffffffffffffffffffff021916908373ffffffffffffffffffffffffffffffffffffffff160217905550817f978d20e26392611c02bd1a6e72cc85fa19bd1024b23c12155f8183fbc90902e787878785600401548c896040516118f296959493929190612676565b60405180910390a250505050505050565b5f600380549050905090565b6001815f015f828254019250508190555050565b5f815f01549050919050565b5f604051905090565b5f5ffd5b5f5ffd5b5f73ffffffffffffffffffffffffffffffffffffffff82169050919050565b5f61196982611940565b9050919050565b6119798161195f565b8114611983575f5ffd5b50565b5f8135905061199481611970565b92915050565b5f5ffd5b5f5ffd5b5f601f19601f8301169050919050565b7f4e487b71000000000000000000000000000000000000000000000000000000005f52604160045260245ffd5b6119e8826119a2565b810181811067ffffffffffffffff82111715611a0757611a066119b2565b5b80604052505050565b5f611a1961192f565b9050611a2582826119df565b919050565b5f67ffffffffffffffff821115611a4457611a436119b2565b5b611a4d826119a2565b9050602081019050919050565b828183375f83830152505050565b5f611a7a611a7584611a2a565b611a10565b905082815260208101848484011115611a9657611a9561199e565b5b611aa1848285611a5a565b509392505050565b5f82601f830112611abd57611abc61199a565b5b8135611acd848260208601611a68565b91505092915050565b5f5f5f5f60808587031215611aee57611aed611938565b5b5f611afb87828801611986565b945050602085013567ffffffffffffffff811115611b1c57611b1b61193c565b5b611b2887828801611aa9565b935050604085013567ffffffffffffffff811115611b4957611b4861193c565b5b611b5587828801611aa9565b925050606085013567ffffffffffffffff811115611b7657611b7561193c565b5b611b8287828801611aa9565b91505092959194509250565b5f819050919050565b611ba081611b8e565b82525050565b5f602082019050611bb95f830184611b97565b92915050565b5f60208284031215611bd457611bd3611938565b5b5f611be184828501611986565b91505092915050565b5f81519050919050565b5f82825260208201905092915050565b8281835e5f83830152505050565b5f611c1c82611bea565b611c268185611bf4565b9350611c36818560208601611c04565b611c3f816119a2565b840191505092915050565b611c538161195f565b82525050565b5f60e0820190508181035f830152611c71818a611c12565b90508181036020830152611c858189611c12565b9050611c946040830188611b97565b8181036060830152611ca68187611c12565b9050611cb56080830186611b97565b81810360a0830152611cc78185611c12565b9050611cd660c0830184611c4a565b98975050505050505050565b611ceb81611b8e565b8114611cf5575f5ffd5b50565b5f81359050611d0681611ce2565b92915050565b5f60208284031215611d2157611d20611938565b5b5f611d2e84828501611cf8565b91505092915050565b5f602082019050611d4a5f830184611c4a565b92915050565b5f5f60408385031215611d6657611d65611938565b5b5f611d7385828601611986565b9250506020611d8485828601611cf8565b9150509250929050565b5f81519050919050565b5f82825260208201905092915050565b5f819050602082019050919050565b611dc08161195f565b82525050565b5f611dd18383611db7565b60208301905092915050565b5f602082019050919050565b5f611df382611d8e565b611dfd8185611d98565b9350611e0883611da8565b805f5b83811015611e38578151611e1f8882611dc6565b9750611e2a83611ddd565b925050600181019050611e0b565b5085935050505092915050565b5f6020820190508181035f830152611e5d8184611de9565b905092915050565b5f60e082019050611e785f83018a611b97565b8181036020830152611e8a8189611c12565b90508181036040830152611e9e8188611c12565b90508181036060830152611eb28187611c12565b9050611ec16080830186611b97565b611ece60a0830185611c4a565b81810360c0830152611ee08184611c12565b905098975050505050505050565b5f8115159050919050565b611f0281611eee565b82525050565b5f60e082019050611f1b5f83018a611b97565b8181036020830152611f2d8189611c12565b90508181036040830152611f418188611c12565b9050611f506060830187611c4a565b8181036080830152611f628186611c12565b9050611f7160a0830185611b97565b611f7e60c0830184611ef9565b98975050505050505050565b5f61010082019050611f9e5f83018b611b97565b8181036020830152611fb0818a611c12565b90508181036040830152611fc48189611c12565b9050611fd36060830188611c4a565b611fe06080830187611b97565b611fed60a0830186611ef9565b611ffa60c0830185611b97565b81810360e083015261200c8184611c12565b90509998505050505050505050565b5f5f5f5f5f60a0868803121561203457612033611938565b5b5f61204188828901611986565b955050602086013567ffffffffffffffff8111156120625761206161193c565b5b61206e88828901611aa9565b945050604086013567ffffffffffffffff81111561208f5761208e61193c565b5b61209b88828901611aa9565b935050606086013567ffffffffffffffff8111156120bc576120bb61193c565b5b6120c888828901611aa9565b925050608086013567ffffffffffffffff8111156120e9576120e861193c565b5b6120f588828901611aa9565b9150509295509295909350565b7f4f6e6c7920746865206f7267616e697a65722063616e2061646420766f7465725f82015250565b5f612136602083611bf4565b915061214182612102565b602082019050919050565b5f6020820190508181035f8301526121638161212a565b9050919050565b7f4e487b71000000000000000000000000000000000000000000000000000000005f52602260045260245ffd5b5f60028204905060018216806121ae57607f821691505b6020821081036121c1576121c061216a565b5b50919050565b5f819050815f5260205f209050919050565b5f6020601f8301049050919050565b5f82821b905092915050565b5f600883026122237fffffffffffffffffffffffffffffffffffffffffffffffffffffffffffffffff826121e8565b61222d86836121e8565b95508019841693508086168417925050509392505050565b5f819050919050565b5f61226861226361225e84611b8e565b612245565b611b8e565b9050919050565b5f819050919050565b6122818361224e565b61229561228d8261226f565b8484546121f4565b825550505050565b5f5f905090565b6122ac61229d565b6122b7818484612278565b505050565b5b818110156122da576122cf5f826122a4565b6001810190506122bd565b5050565b601f82111561231f576122f0816121c7565b6122f9846121d9565b81016020851015612308578190505b61231c612314856121d9565b8301826122bc565b50505b505050565b5f82821c905092915050565b5f61233f5f1984600802612324565b1980831691505092915050565b5f6123578383612330565b9150826002028217905092915050565b61237082611bea565b67ffffffffffffffff811115612389576123886119b2565b5b6123938254612197565b61239e8282856122de565b5f60209050601f8311600181146123cf575f84156123bd578287015190505b6123c7858261234c565b86555061242e565b601f1984166123dd866121c7565b5f5b82811015612404578489015182556001820191506020850194506020810190506123df565b86831015612421578489015161241d601f891682612330565b8355505b6001600288020188555050505b505050505050565b5f60e0820190508181035f83015261244e818a611c12565b905081810360208301526124628189611c12565b90506124716040830188611c4a565b61247e6060830187611b97565b61248b6080830186611ef9565b61249860a0830185611b97565b81810360c08301526124aa8184611c12565b905098975050505050505050565b7f596f75206861766520616c726561647920766f746564000000000000000000005f82015250565b5f6124ec601683611bf4565b91506124f7826124b8565b602082019050919050565b5f6020820190508181035f830152612519816124e0565b9050919050565b7f596f752068617665206e6f20726967687420746f20766f7465000000000000005f82015250565b5f612554601983611bf4565b915061255f82612520565b602082019050919050565b5f6020820190508181035f83015261258181612548565b9050919050565b7f4e487b71000000000000000000000000000000000000000000000000000000005f52601160045260245ffd5b5f6125bf82611b8e565b91506125ca83611b8e565b92508282019050808211156125e2576125e1612588565b5b92915050565b7f4f6e6c7920746865206f7267616e697a65722063616e206164642063616e64695f8201527f6461746500000000000000000000000000000000000000000000000000000000602082015250565b5f612642602483611bf4565b915061264d826125e8565b604082019050919050565b5f6020820190508181035f83015261266f81612636565b9050919050565b5f60c0820190508181035f83015261268e8189611c12565b905081810360208301526126a28188611c12565b905081810360408301526126b68187611c12565b90506126c56060830186611b97565b6126d26080830185611c4a565b81810360a08301526126e48184611c12565b905097965050505050505056fea2646970667358221220ecb3a50304e663724720b26750bcb754ba80d571edd8ded6cd0f7822b476fb6464736f6c634300081c0033",
  "linkReferences": {},
  "deployedLinkReferences": {}
}